{
    "contractName": "RFT",
    "abi": [
        {
            "inputs": [
                {
                    "internalType": "string",
                    "name": "_name",
                    "type": "string"
                },
                {
                    "internalType": "string",
                    "name": "_symbol",
                    "type": "string"
                },
                {
                    "internalType": "address",
                    "name": "_nftAddress",
                    "type": "address"
                },
                {
                    "internalType": "uint256",
                    "name": "_nftId",
                    "type": "uint256"
                },
                {
                    "internalType": "uint256",
                    "name": "_icoSharePrice",
                    "type": "uint256"
                },
                {
                    "internalType": "uint256",
                    "name": "_icoShareAmount",
                    "type": "uint256"
                },
                {
                    "internalType": "address",
                    "name": "_daiAddress",
                    "type": "address"
                }
            ],
            "stateMutability": "nonpayable",
            "type": "constructor"
        },
        {
            "anonymous": false,
            "inputs": [
                {
                    "indexed": true,
                    "internalType": "address",
                    "name": "owner",
                    "type": "address"
                },
                {
                    "indexed": true,
                    "internalType": "address",
                    "name": "spender",
                    "type": "address"
                },
                {
                    "indexed": false,
                    "internalType": "uint256",
                    "name": "value",
                    "type": "uint256"
                }
            ],
            "name": "Approval",
            "type": "event"
        },
        {
            "anonymous": false,
            "inputs": [
                {
                    "indexed": true,
                    "internalType": "address",
                    "name": "from",
                    "type": "address"
                },
                {
                    "indexed": true,
                    "internalType": "address",
                    "name": "to",
                    "type": "address"
                },
                {
                    "indexed": false,
                    "internalType": "uint256",
                    "name": "value",
                    "type": "uint256"
                }
            ],
            "name": "Transfer",
            "type": "event"
        },
        {
            "inputs": [],
            "name": "admin",
            "outputs": [
                {
                    "internalType": "address",
                    "name": "",
                    "type": "address"
                }
            ],
            "stateMutability": "view",
            "type": "function"
        },
        {
            "inputs": [
                {
                    "internalType": "address",
                    "name": "owner",
                    "type": "address"
                },
                {
                    "internalType": "address",
                    "name": "spender",
                    "type": "address"
                }
            ],
            "name": "allowance",
            "outputs": [
                {
                    "internalType": "uint256",
                    "name": "",
                    "type": "uint256"
                }
            ],
            "stateMutability": "view",
            "type": "function"
        },
        {
            "inputs": [
                {
                    "internalType": "address",
                    "name": "spender",
                    "type": "address"
                },
                {
                    "internalType": "uint256",
                    "name": "amount",
                    "type": "uint256"
                }
            ],
            "name": "approve",
            "outputs": [
                {
                    "internalType": "bool",
                    "name": "",
                    "type": "bool"
                }
            ],
            "stateMutability": "nonpayable",
            "type": "function"
        },
        {
            "inputs": [
                {
                    "internalType": "address",
                    "name": "account",
                    "type": "address"
                }
            ],
            "name": "balanceOf",
            "outputs": [
                {
                    "internalType": "uint256",
                    "name": "",
                    "type": "uint256"
                }
            ],
            "stateMutability": "view",
            "type": "function"
        },
        {
            "inputs": [
                {
                    "internalType": "uint256",
                    "name": "shareAmount",
                    "type": "uint256"
                }
            ],
            "name": "buyShare",
            "outputs": [],
            "stateMutability": "nonpayable",
            "type": "function"
        },
        {
            "inputs": [],
            "name": "dai",
            "outputs": [
                {
                    "internalType": "contract IERC20",
                    "name": "",
                    "type": "address"
                }
            ],
            "stateMutability": "view",
            "type": "function"
        },
        {
            "inputs": [],
            "name": "decimals",
            "outputs": [
                {
                    "internalType": "uint8",
                    "name": "",
                    "type": "uint8"
                }
            ],
            "stateMutability": "view",
            "type": "function"
        },
        {
            "inputs": [
                {
                    "internalType": "address",
                    "name": "spender",
                    "type": "address"
                },
                {
                    "internalType": "uint256",
                    "name": "subtractedValue",
                    "type": "uint256"
                }
            ],
            "name": "decreaseAllowance",
            "outputs": [
                {
                    "internalType": "bool",
                    "name": "",
                    "type": "bool"
                }
            ],
            "stateMutability": "nonpayable",
            "type": "function"
        },
        {
            "inputs": [],
            "name": "icoEnd",
            "outputs": [
                {
                    "internalType": "uint256",
                    "name": "",
                    "type": "uint256"
                }
            ],
            "stateMutability": "view",
            "type": "function"
        },
        {
            "inputs": [],
            "name": "icoShareAmount",
            "outputs": [
                {
                    "internalType": "uint256",
                    "name": "",
                    "type": "uint256"
                }
            ],
            "stateMutability": "view",
            "type": "function"
        },
        {
            "inputs": [],
            "name": "icoSharePrice",
            "outputs": [
                {
                    "internalType": "uint256",
                    "name": "",
                    "type": "uint256"
                }
            ],
            "stateMutability": "view",
            "type": "function"
        },
        {
            "inputs": [
                {
                    "internalType": "address",
                    "name": "spender",
                    "type": "address"
                },
                {
                    "internalType": "uint256",
                    "name": "addedValue",
                    "type": "uint256"
                }
            ],
            "name": "increaseAllowance",
            "outputs": [
                {
                    "internalType": "bool",
                    "name": "",
                    "type": "bool"
                }
            ],
            "stateMutability": "nonpayable",
            "type": "function"
        },
        {
            "inputs": [],
            "name": "name",
            "outputs": [
                {
                    "internalType": "string",
                    "name": "",
                    "type": "string"
                }
            ],
            "stateMutability": "view",
            "type": "function"
        },
        {
            "inputs": [],
            "name": "nft",
            "outputs": [
                {
                    "internalType": "contract IERC721",
                    "name": "",
                    "type": "address"
                }
            ],
            "stateMutability": "view",
            "type": "function"
        },
        {
            "inputs": [],
            "name": "nftId",
            "outputs": [
                {
                    "internalType": "uint256",
                    "name": "",
                    "type": "uint256"
                }
            ],
            "stateMutability": "view",
            "type": "function"
        },
        {
            "inputs": [
                {
                    "internalType": "uint256",
                    "name": "_icoEnd",
                    "type": "uint256"
                }
            ],
            "name": "startIco",
            "outputs": [],
            "stateMutability": "nonpayable",
            "type": "function"
        },
        {
            "inputs": [],
            "name": "symbol",
            "outputs": [
                {
                    "internalType": "string",
                    "name": "",
                    "type": "string"
                }
            ],
            "stateMutability": "view",
            "type": "function"
        },
        {
            "inputs": [],
            "name": "totalSupply",
            "outputs": [
                {
                    "internalType": "uint256",
                    "name": "",
                    "type": "uint256"
                }
            ],
            "stateMutability": "view",
            "type": "function"
        },
        {
            "inputs": [
                {
                    "internalType": "address",
                    "name": "recipient",
                    "type": "address"
                },
                {
                    "internalType": "uint256",
                    "name": "amount",
                    "type": "uint256"
                }
            ],
            "name": "transfer",
            "outputs": [
                {
                    "internalType": "bool",
                    "name": "",
                    "type": "bool"
                }
            ],
            "stateMutability": "nonpayable",
            "type": "function"
        },
        {
            "inputs": [
                {
                    "internalType": "address",
                    "name": "sender",
                    "type": "address"
                },
                {
                    "internalType": "address",
                    "name": "recipient",
                    "type": "address"
                },
                {
                    "internalType": "uint256",
                    "name": "amount",
                    "type": "uint256"
                }
            ],
            "name": "transferFrom",
            "outputs": [
                {
                    "internalType": "bool",
                    "name": "",
                    "type": "bool"
                }
            ],
            "stateMutability": "nonpayable",
            "type": "function"
        },
        {
            "inputs": [],
            "name": "withdrawProfit",
            "outputs": [],
            "stateMutability": "nonpayable",
            "type": "function"
        }
    ],
    "bytecode": "60806040523480156200001157600080fd5b50604051620013f3380380620013f3833981810160405260e08110156200003757600080fd5b81019080805160405193929190846401000000008211156200005857600080fd5b9083019060208201858111156200006e57600080fd5b82516401000000008111828201881017156200008957600080fd5b82525081516020918201929091019080838360005b83811015620000b85781810151838201526020016200009e565b50505050905090810190601f168015620000e65780820380516001836020036101000a031916815260200191505b50604052602001805160405193929190846401000000008211156200010a57600080fd5b9083019060208201858111156200012057600080fd5b82516401000000008111828201881017156200013b57600080fd5b82525081516020918201929091019080838360005b838110156200016a57818101518382015260200162000150565b50505050905090810190601f168015620001985780820380516001836020036101000a031916815260200191505b506040908152602082810151918301516060840151608085015160a09095015189519497509195509392909188918891620001d99160039185019062000253565b508051620001ef90600490602084019062000253565b50506005805460ff1916601217905550600692909255600755600991909155600a80546001600160a01b039384166001600160a01b031991821617909155600b80549290931691811691909117909155600c80549091163317905550620002ef9050565b828054600181600116156101000203166002900490600052602060002090601f016020900481019282601f106200029657805160ff1916838001178555620002c6565b82800160010185558215620002c6579182015b82811115620002c6578251825591602001919060010190620002a9565b50620002d4929150620002d8565b5090565b5b80821115620002d45760008155600101620002d9565b6110f480620002ff6000396000f3fe608060405234801561001057600080fd5b50600436106101375760003560e01c806370a08231116100b8578063a9ed6e9a1161007c578063a9ed6e9a14610374578063c6bc518214610391578063c8fa753514610399578063dd62ed3e146103a1578063f4b9fa75146103cf578063f851a440146103d757610137565b806370a08231146102e6578063959499b61461030c57806395d89b4114610314578063a457c2d71461031c578063a9059cbb1461034857610137565b8063313ce567116100ff578063313ce56714610251578063395093511461026f5780633ded9b781461029b57806347ccca02146102ba57806357b6e966146102de57610137565b80630563451a1461013c57806306fdde0314610156578063095ea7b3146101d357806318160ddd1461021357806323b872dd1461021b575b600080fd5b6101446103df565b60408051918252519081900360200190f35b61015e6103e5565b6040805160208082528351818301528351919283929083019185019080838360005b83811015610198578181015183820152602001610180565b50505050905090810190601f1680156101c55780820380516001836020036101000a031916815260200191505b509250505060405180910390f35b6101ff600480360360408110156101e957600080fd5b506001600160a01b03813516906020013561047b565b604080519115158252519081900360200190f35b610144610498565b6101ff6004803603606081101561023157600080fd5b506001600160a01b0381358116916020810135909116906040013561049e565b610259610525565b6040805160ff9092168252519081900360200190f35b6101ff6004803603604081101561028557600080fd5b506001600160a01b03813516906020013561052e565b6102b8600480360360208110156102b157600080fd5b503561057c565b005b6102c2610641565b604080516001600160a01b039092168252519081900360200190f35b610144610650565b610144600480360360208110156102fc57600080fd5b50356001600160a01b0316610656565b6102b8610671565b61015e610836565b6101ff6004803603604081101561033257600080fd5b506001600160a01b038135169060200135610897565b6101ff6004803603604081101561035e57600080fd5b506001600160a01b0381351690602001356108ff565b6102b86004803603602081101561038a57600080fd5b5035610913565b610144610aeb565b610144610af1565b610144600480360360408110156103b757600080fd5b506001600160a01b0381358116916020013516610af7565b6102c2610b22565b6102c2610b31565b60085481565b60038054604080516020601f60026000196101006001881615020190951694909404938401819004810282018101909252828152606093909290918301828280156104715780601f1061044657610100808354040283529160200191610471565b820191906000526020600020905b81548152906001019060200180831161045457829003601f168201915b5050505050905090565b600061048f610488610b40565b8484610b44565b50600192915050565b60025490565b60006104ab848484610c30565b61051b846104b7610b40565b61051685604051806060016040528060288152602001611029602891396001600160a01b038a166000908152600160205260408120906104f5610b40565b6001600160a01b031681526020810191909152604001600020549190610d8b565b610b44565b5060019392505050565b60055460ff1690565b600061048f61053b610b40565b84610516856001600061054c610b40565b6001600160a01b03908116825260208083019390935260409182016000908120918c168152925290205490610e22565b600c546001600160a01b031633146105c55760405162461bcd60e51b8152600401808060200182810382526021815260200180610f9c6021913960400191505060405180910390fd5b6008819055600a54600954604080516323b872dd60e01b81523360048201523060248201526044810192909252516001600160a01b03909216916323b872dd9160648082019260009290919082900301818387803b15801561062657600080fd5b505af115801561063a573d6000803e3d6000fd5b5050505050565b600a546001600160a01b031681565b60065481565b6001600160a01b031660009081526020819052604090205490565b600c546001600160a01b031633146106ba5760405162461bcd60e51b8152600401808060200182810382526021815260200180610f9c6021913960400191505060405180910390fd5b6008544211610701576040805162461bcd60e51b815260206004820152600e60248201526d1250d3c81cda1bdd5b1908195b9960921b604482015290519081900360640190fd5b600b54604080516370a0823160e01b815230600482015290516000926001600160a01b0316916370a08231916024808301926020929190829003018186803b15801561074c57600080fd5b505afa158015610760573d6000803e3d6000fd5b505050506040513d602081101561077657600080fd5b50519050801561080657600b54600c546040805163a9059cbb60e01b81526001600160a01b039283166004820152602481018590529051919092169163a9059cbb9160448083019260209291908290030181600087803b1580156107d957600080fd5b505af11580156107ed573d6000803e3d6000fd5b505050506040513d602081101561080357600080fd5b50505b6000610810610498565b600754039050801561083257600c54610832906001600160a01b031682610e83565b5050565b60048054604080516020601f60026000196101006001881615020190951694909404938401819004810282018101909252828152606093909290918301828280156104715780601f1061044657610100808354040283529160200191610471565b600061048f6108a4610b40565b846105168560405180606001604052806025815260200161109a60259139600160006108ce610b40565b6001600160a01b03908116825260208083019390935260409182016000908120918d16815292529020549190610d8b565b600061048f61090c610b40565b8484610c30565b60006008541161096a576040805162461bcd60e51b815260206004820152601760248201527f49434f2073686f756c6420686176652073746172746564000000000000000000604482015290519081900360640190fd5b60085442106109c0576040805162461bcd60e51b815260206004820152601960248201527f49434f2073686f756c64206e6f74206861766520656e64656400000000000000604482015290519081900360640190fd5b600081116109ff5760405162461bcd60e51b8152600401808060200182810382526024815260200180610fdf6024913960400191505060405180910390fd5b60075481610a0b610498565b011115610a53576040805162461bcd60e51b81526020600482015260116024820152704e6f7420656e6f7567682073686172657360781b604482015290519081900360640190fd5b600654600b54604080516323b872dd60e01b815233600482015230602482015292840260448401819052905190926001600160a01b03909216916323b872dd9160648083019260209291908290030181600087803b158015610ab457600080fd5b505af1158015610ac8573d6000803e3d6000fd5b505050506040513d6020811015610ade57600080fd5b5061083290503383610e83565b60095481565b60075481565b6001600160a01b03918216600090815260016020908152604080832093909416825291909152205490565b600b546001600160a01b031681565b600c546001600160a01b031681565b3390565b6001600160a01b038316610b895760405162461bcd60e51b81526004018080602001828103825260248152602001806110766024913960400191505060405180910390fd5b6001600160a01b038216610bce5760405162461bcd60e51b8152600401808060200182810382526022815260200180610fbd6022913960400191505060405180910390fd5b6001600160a01b03808416600081815260016020908152604080832094871680845294825291829020859055815185815291517f8c5be1e5ebec7d5bd14f71427d1e84f3dd0314c0f7b2291e5b200ac8c7c3b9259281900390910190a3505050565b6001600160a01b038316610c755760405162461bcd60e51b81526004018080602001828103825260258152602001806110516025913960400191505060405180910390fd5b6001600160a01b038216610cba5760405162461bcd60e51b8152600401808060200182810382526023815260200180610f796023913960400191505060405180910390fd5b610cc5838383610f73565b610d0281604051806060016040528060268152602001611003602691396001600160a01b0386166000908152602081905260409020549190610d8b565b6001600160a01b038085166000908152602081905260408082209390935590841681522054610d319082610e22565b6001600160a01b038084166000818152602081815260409182902094909455805185815290519193928716927fddf252ad1be2c89b69c2b068fc378daa952ba7f163c4a11628f55a4df523b3ef92918290030190a3505050565b60008184841115610e1a5760405162461bcd60e51b81526004018080602001828103825283818151815260200191508051906020019080838360005b83811015610ddf578181015183820152602001610dc7565b50505050905090810190601f168015610e0c5780820380516001836020036101000a031916815260200191505b509250505060405180910390fd5b505050900390565b600082820183811015610e7c576040805162461bcd60e51b815260206004820152601b60248201527f536166654d6174683a206164646974696f6e206f766572666c6f770000000000604482015290519081900360640190fd5b9392505050565b6001600160a01b038216610ede576040805162461bcd60e51b815260206004820152601f60248201527f45524332303a206d696e7420746f20746865207a65726f206164647265737300604482015290519081900360640190fd5b610eea60008383610f73565b600254610ef79082610e22565b6002556001600160a01b038216600090815260208190526040902054610f1d9082610e22565b6001600160a01b0383166000818152602081815260408083209490945583518581529351929391927fddf252ad1be2c89b69c2b068fc378daa952ba7f163c4a11628f55a4df523b3ef9281900390910190a35050565b50505056fe45524332303a207472616e7366657220746f20746865207a65726f20616464726573736f6e6c792061646d696e2063616e2063616c6c20746869732066756e6374696f6e45524332303a20617070726f766520746f20746865207a65726f20616464726573737368617265416d6f756e742073686f756c642062652067726561746572207468616e203045524332303a207472616e7366657220616d6f756e7420657863656564732062616c616e636545524332303a207472616e7366657220616d6f756e74206578636565647320616c6c6f77616e636545524332303a207472616e736665722066726f6d20746865207a65726f206164647265737345524332303a20617070726f76652066726f6d20746865207a65726f206164647265737345524332303a2064656372656173656420616c6c6f77616e63652062656c6f77207a65726fa264697066735822122084033d22a4bebb9424c552e4025ad76f4c2eb1e95738882ec120ad0226c77f4c64736f6c63430007020033",
    "sourcePath": "c:/Users/85/Desktop/RFT/contracts/RFT.sol",
    "compiler": {
        "name": "solc",
        "version": "0.7.2+commit.51b20bc0"
    },
    "functionHashes": {
        "admin()": "f851a440",
        "allowance(address,address)": "dd62ed3e",
        "approve(address,uint256)": "095ea7b3",
        "balanceOf(address)": "70a08231",
        "buyShare(uint256)": "a9ed6e9a",
        "dai()": "f4b9fa75",
        "decimals()": "313ce567",
        "decreaseAllowance(address,uint256)": "a457c2d7",
        "icoEnd()": "0563451a",
        "icoShareAmount()": "c8fa7535",
        "icoSharePrice()": "57b6e966",
        "increaseAllowance(address,uint256)": "39509351",
        "name()": "06fdde03",
        "nft()": "47ccca02",
        "nftId()": "c6bc5182",
        "startIco(uint256)": "3ded9b78",
        "symbol()": "95d89b41",
        "totalSupply()": "18160ddd",
        "transfer(address,uint256)": "a9059cbb",
        "transferFrom(address,address,uint256)": "23b872dd",
        "withdrawProfit()": "959499b6"
    },
    "gasEstimates": {
        "creation": {
            "codeDepositCost": "868000",
            "executionCost": "infinite",
            "totalCost": "infinite"
        },
        "external": {
            "admin()": "1169",
            "allowance(address,address)": "1338",
            "approve(address,uint256)": "infinite",
            "balanceOf(address)": "1168",
            "buyShare(uint256)": "infinite",
            "dai()": "1147",
            "decimals()": "1036",
            "decreaseAllowance(address,uint256)": "infinite",
            "icoEnd()": "1022",
            "icoShareAmount()": "1064",
            "icoSharePrice()": "1109",
            "increaseAllowance(address,uint256)": "infinite",
            "name()": "infinite",
            "nft()": "1126",
            "nftId()": "1042",
            "startIco(uint256)": "infinite",
            "symbol()": "infinite",
            "totalSupply()": "1088",
            "transfer(address,uint256)": "infinite",
            "transferFrom(address,address,uint256)": "infinite",
            "withdrawProfit()": "infinite"
        }
    }
}