{
  "contractName": "NFT",
  "abi": [
    {
      "inputs": [
        {
          "internalType": "string",
          "name": "_name",
          "type": "string"
        },
        {
          "internalType": "string",
          "name": "_symbol",
          "type": "string"
        }
      ],
      "stateMutability": "nonpayable",
      "type": "constructor"
    },
    {
      "anonymous": false,
      "inputs": [
        {
          "indexed": true,
          "internalType": "address",
          "name": "owner",
          "type": "address"
        },
        {
          "indexed": true,
          "internalType": "address",
          "name": "approved",
          "type": "address"
        },
        {
          "indexed": true,
          "internalType": "uint256",
          "name": "tokenId",
          "type": "uint256"
        }
      ],
      "name": "Approval",
      "type": "event"
    },
    {
      "anonymous": false,
      "inputs": [
        {
          "indexed": true,
          "internalType": "address",
          "name": "owner",
          "type": "address"
        },
        {
          "indexed": true,
          "internalType": "address",
          "name": "operator",
          "type": "address"
        },
        {
          "indexed": false,
          "internalType": "bool",
          "name": "approved",
          "type": "bool"
        }
      ],
      "name": "ApprovalForAll",
      "type": "event"
    },
    {
      "anonymous": false,
      "inputs": [
        {
          "indexed": true,
          "internalType": "address",
          "name": "from",
          "type": "address"
        },
        {
          "indexed": true,
          "internalType": "address",
          "name": "to",
          "type": "address"
        },
        {
          "indexed": true,
          "internalType": "uint256",
          "name": "tokenId",
          "type": "uint256"
        }
      ],
      "name": "Transfer",
      "type": "event"
    },
    {
      "inputs": [
        {
          "internalType": "address",
          "name": "to",
          "type": "address"
        },
        {
          "internalType": "uint256",
          "name": "tokenId",
          "type": "uint256"
        }
      ],
      "name": "approve",
      "outputs": [],
      "stateMutability": "nonpayable",
      "type": "function"
    },
    {
      "inputs": [
        {
          "internalType": "address",
          "name": "owner",
          "type": "address"
        }
      ],
      "name": "balanceOf",
      "outputs": [
        {
          "internalType": "uint256",
          "name": "",
          "type": "uint256"
        }
      ],
      "stateMutability": "view",
      "type": "function",
      "constant": true
    },
    {
      "inputs": [],
      "name": "baseURI",
      "outputs": [
        {
          "internalType": "string",
          "name": "",
          "type": "string"
        }
      ],
      "stateMutability": "view",
      "type": "function",
      "constant": true
    },
    {
      "inputs": [
        {
          "internalType": "uint256",
          "name": "tokenId",
          "type": "uint256"
        }
      ],
      "name": "getApproved",
      "outputs": [
        {
          "internalType": "address",
          "name": "",
          "type": "address"
        }
      ],
      "stateMutability": "view",
      "type": "function",
      "constant": true
    },
    {
      "inputs": [
        {
          "internalType": "address",
          "name": "owner",
          "type": "address"
        },
        {
          "internalType": "address",
          "name": "operator",
          "type": "address"
        }
      ],
      "name": "isApprovedForAll",
      "outputs": [
        {
          "internalType": "bool",
          "name": "",
          "type": "bool"
        }
      ],
      "stateMutability": "view",
      "type": "function",
      "constant": true
    },
    {
      "inputs": [],
      "name": "name",
      "outputs": [
        {
          "internalType": "string",
          "name": "",
          "type": "string"
        }
      ],
      "stateMutability": "view",
      "type": "function",
      "constant": true
    },
    {
      "inputs": [
        {
          "internalType": "uint256",
          "name": "tokenId",
          "type": "uint256"
        }
      ],
      "name": "ownerOf",
      "outputs": [
        {
          "internalType": "address",
          "name": "",
          "type": "address"
        }
      ],
      "stateMutability": "view",
      "type": "function",
      "constant": true
    },
    {
      "inputs": [
        {
          "internalType": "address",
          "name": "from",
          "type": "address"
        },
        {
          "internalType": "address",
          "name": "to",
          "type": "address"
        },
        {
          "internalType": "uint256",
          "name": "tokenId",
          "type": "uint256"
        }
      ],
      "name": "safeTransferFrom",
      "outputs": [],
      "stateMutability": "nonpayable",
      "type": "function"
    },
    {
      "inputs": [
        {
          "internalType": "address",
          "name": "from",
          "type": "address"
        },
        {
          "internalType": "address",
          "name": "to",
          "type": "address"
        },
        {
          "internalType": "uint256",
          "name": "tokenId",
          "type": "uint256"
        },
        {
          "internalType": "bytes",
          "name": "_data",
          "type": "bytes"
        }
      ],
      "name": "safeTransferFrom",
      "outputs": [],
      "stateMutability": "nonpayable",
      "type": "function"
    },
    {
      "inputs": [
        {
          "internalType": "address",
          "name": "operator",
          "type": "address"
        },
        {
          "internalType": "bool",
          "name": "approved",
          "type": "bool"
        }
      ],
      "name": "setApprovalForAll",
      "outputs": [],
      "stateMutability": "nonpayable",
      "type": "function"
    },
    {
      "inputs": [
        {
          "internalType": "bytes4",
          "name": "interfaceId",
          "type": "bytes4"
        }
      ],
      "name": "supportsInterface",
      "outputs": [
        {
          "internalType": "bool",
          "name": "",
          "type": "bool"
        }
      ],
      "stateMutability": "view",
      "type": "function",
      "constant": true
    },
    {
      "inputs": [],
      "name": "symbol",
      "outputs": [
        {
          "internalType": "string",
          "name": "",
          "type": "string"
        }
      ],
      "stateMutability": "view",
      "type": "function",
      "constant": true
    },
    {
      "inputs": [
        {
          "internalType": "uint256",
          "name": "index",
          "type": "uint256"
        }
      ],
      "name": "tokenByIndex",
      "outputs": [
        {
          "internalType": "uint256",
          "name": "",
          "type": "uint256"
        }
      ],
      "stateMutability": "view",
      "type": "function",
      "constant": true
    },
    {
      "inputs": [
        {
          "internalType": "address",
          "name": "owner",
          "type": "address"
        },
        {
          "internalType": "uint256",
          "name": "index",
          "type": "uint256"
        }
      ],
      "name": "tokenOfOwnerByIndex",
      "outputs": [
        {
          "internalType": "uint256",
          "name": "",
          "type": "uint256"
        }
      ],
      "stateMutability": "view",
      "type": "function",
      "constant": true
    },
    {
      "inputs": [
        {
          "internalType": "uint256",
          "name": "tokenId",
          "type": "uint256"
        }
      ],
      "name": "tokenURI",
      "outputs": [
        {
          "internalType": "string",
          "name": "",
          "type": "string"
        }
      ],
      "stateMutability": "view",
      "type": "function",
      "constant": true
    },
    {
      "inputs": [],
      "name": "totalSupply",
      "outputs": [
        {
          "internalType": "uint256",
          "name": "",
          "type": "uint256"
        }
      ],
      "stateMutability": "view",
      "type": "function",
      "constant": true
    },
    {
      "inputs": [
        {
          "internalType": "address",
          "name": "from",
          "type": "address"
        },
        {
          "internalType": "address",
          "name": "to",
          "type": "address"
        },
        {
          "internalType": "uint256",
          "name": "tokenId",
          "type": "uint256"
        }
      ],
      "name": "transferFrom",
      "outputs": [],
      "stateMutability": "nonpayable",
      "type": "function"
    },
    {
      "inputs": [
        {
          "internalType": "address",
          "name": "_to",
          "type": "address"
        },
        {
          "internalType": "uint256",
          "name": "_tokenId",
          "type": "uint256"
        }
      ],
      "name": "mint",
      "outputs": [],
      "stateMutability": "nonpayable",
      "type": "function"
    }
  ],
  "bytecode": "0x60806040523480156200001157600080fd5b5060405162002ed138038062002ed1833981810160405260408110156200003757600080fd5b81019080805160405193929190846401000000008211156200005857600080fd5b838201915060208201858111156200006f57600080fd5b82518660018202830111640100000000821117156200008d57600080fd5b8083526020830192505050908051906020019080838360005b83811015620000c3578082015181840152602081019050620000a6565b50505050905090810190601f168015620000f15780820380516001836020036101000a031916815260200191505b50604052602001805160405193929190846401000000008211156200011557600080fd5b838201915060208201858111156200012c57600080fd5b82518660018202830111640100000000821117156200014a57600080fd5b8083526020830192505050908051906020019080838360005b838110156200018057808201518184015260208101905062000163565b50505050905090810190601f168015620001ae5780820380516001836020036101000a031916815260200191505b506040525050508181620001f46301ffc9a77c010000000000000000000000000000000000000000000000000000000002620002e7640100000000026401000000009004565b81600690805190602001906200020c9291906200040c565b508060079080519060200190620002259291906200040c565b50620002636380ac58cd7c010000000000000000000000000000000000000000000000000000000002620002e7640100000000026401000000009004565b620002a0635b5e139f7c010000000000000000000000000000000000000000000000000000000002620002e7640100000000026401000000009004565b620002dd63780e9d637c010000000000000000000000000000000000000000000000000000000002620002e7640100000000026401000000009004565b50505050620004b2565b63ffffffff7c010000000000000000000000000000000000000000000000000000000002817bffffffffffffffffffffffffffffffffffffffffffffffffffffffff19161415620003a0576040517f08c379a000000000000000000000000000000000000000000000000000000000815260040180806020018281038252601c8152602001807f4552433136353a20696e76616c696420696e746572666163652069640000000081525060200191505060405180910390fd5b6001600080837bffffffffffffffffffffffffffffffffffffffffffffffffffffffff19167bffffffffffffffffffffffffffffffffffffffffffffffffffffffff1916815260200190815260200160002060006101000a81548160ff02191690831515021790555050565b828054600181600116156101000203166002900490600052602060002090601f016020900481019282601f106200044f57805160ff191683800117855562000480565b8280016001018555821562000480579182015b828111156200047f57825182559160200191906001019062000462565b5b5090506200048f919062000493565b5090565b5b80821115620004ae57600081600090555060010162000494565b5090565b612a0f80620004c26000396000f3fe608060405234801561001057600080fd5b5060043610610133576000357c0100000000000000000000000000000000000000000000000000000000900480634f6ccce7116100bf57806395d89b411161008e57806395d89b41146105e3578063a22cb46514610666578063b88d4fde146106b6578063c87b56dd146107bb578063e985e9c51461086257610133565b80634f6ccce71461046e5780636352211e146104b05780636c0360eb1461050857806370a082311461058b57610133565b806318160ddd1161010657806318160ddd146102c457806323b872dd146102e25780632f745c591461035057806340c10f19146103b257806342842e0e1461040057610133565b806301ffc9a71461013857806306fdde031461019b578063081812fc1461021e578063095ea7b314610276575b600080fd5b6101836004803603602081101561014e57600080fd5b8101908080357bffffffffffffffffffffffffffffffffffffffffffffffffffffffff191690602001909291905050506108dc565b60405180821515815260200191505060405180910390f35b6101a3610943565b6040518080602001828103825283818151815260200191508051906020019080838360005b838110156101e35780820151818401526020810190506101c8565b50505050905090810190601f1680156102105780820380516001836020036101000a031916815260200191505b509250505060405180910390f35b61024a6004803603602081101561023457600080fd5b81019080803590602001909291905050506109e5565b604051808273ffffffffffffffffffffffffffffffffffffffff16815260200191505060405180910390f35b6102c26004803603604081101561028c57600080fd5b81019080803573ffffffffffffffffffffffffffffffffffffffff16906020019092919080359060200190929190505050610a80565b005b6102cc610bc4565b6040518082815260200191505060405180910390f35b61034e600480360360608110156102f857600080fd5b81019080803573ffffffffffffffffffffffffffffffffffffffff169060200190929190803573ffffffffffffffffffffffffffffffffffffffff16906020019092919080359060200190929190505050610bd5565b005b61039c6004803603604081101561036657600080fd5b81019080803573ffffffffffffffffffffffffffffffffffffffff16906020019092919080359060200190929190505050610c4b565b6040518082815260200191505060405180910390f35b6103fe600480360360408110156103c857600080fd5b81019080803573ffffffffffffffffffffffffffffffffffffffff16906020019092919080359060200190929190505050610ca6565b005b61046c6004803603606081101561041657600080fd5b81019080803573ffffffffffffffffffffffffffffffffffffffff169060200190929190803573ffffffffffffffffffffffffffffffffffffffff16906020019092919080359060200190929190505050610cb4565b005b61049a6004803603602081101561048457600080fd5b8101908080359060200190929190505050610cd4565b6040518082815260200191505060405180910390f35b6104dc600480360360208110156104c657600080fd5b8101908080359060200190929190505050610cf7565b604051808273ffffffffffffffffffffffffffffffffffffffff16815260200191505060405180910390f35b610510610d2e565b6040518080602001828103825283818151815260200191508051906020019080838360005b83811015610550578082015181840152602081019050610535565b50505050905090810190601f16801561057d5780820380516001836020036101000a031916815260200191505b509250505060405180910390f35b6105cd600480360360208110156105a157600080fd5b81019080803573ffffffffffffffffffffffffffffffffffffffff169060200190929190505050610dd0565b6040518082815260200191505060405180910390f35b6105eb610ea5565b6040518080602001828103825283818151815260200191508051906020019080838360005b8381101561062b578082015181840152602081019050610610565b50505050905090810190601f1680156106585780820380516001836020036101000a031916815260200191505b509250505060405180910390f35b6106b46004803603604081101561067c57600080fd5b81019080803573ffffffffffffffffffffffffffffffffffffffff169060200190929190803515159060200190929190505050610f47565b005b6107b9600480360360808110156106cc57600080fd5b81019080803573ffffffffffffffffffffffffffffffffffffffff169060200190929190803573ffffffffffffffffffffffffffffffffffffffff169060200190929190803590602001909291908035906020019064010000000081111561073357600080fd5b82018360208201111561074557600080fd5b8035906020019184600183028401116401000000008311171561076757600080fd5b91908080601f016020809104026020016040519081016040528093929190818152602001838380828437600081840152601f19601f8201169050808301925050505050505091929192905050506110fd565b005b6107e7600480360360208110156107d157600080fd5b8101908080359060200190929190505050611175565b6040518080602001828103825283818151815260200191508051906020019080838360005b8381101561082757808201518184015260208101905061080c565b50505050905090810190601f1680156108545780820380516001836020036101000a031916815260200191505b509250505060405180910390f35b6108c46004803603604081101561087857600080fd5b81019080803573ffffffffffffffffffffffffffffffffffffffff169060200190929190803573ffffffffffffffffffffffffffffffffffffffff169060200190929190505050611446565b60405180821515815260200191505060405180910390f35b6000806000837bffffffffffffffffffffffffffffffffffffffffffffffffffffffff19167bffffffffffffffffffffffffffffffffffffffffffffffffffffffff1916815260200190815260200160002060009054906101000a900460ff169050919050565b606060068054600181600116156101000203166002900480601f0160208091040260200160405190810160405280929190818152602001828054600181600116156101000203166002900480156109db5780601f106109b0576101008083540402835291602001916109db565b820191906000526020600020905b8154815290600101906020018083116109be57829003601f168201915b5050505050905090565b60006109f0826114da565b610a45576040517f08c379a000000000000000000000000000000000000000000000000000000000815260040180806020018281038252602c815260200180612904602c913960400191505060405180910390fd5b6004600083815260200190815260200160002060009054906101000a900473ffffffffffffffffffffffffffffffffffffffff169050919050565b6000610a8b82610cf7565b90508073ffffffffffffffffffffffffffffffffffffffff168373ffffffffffffffffffffffffffffffffffffffff161415610b12576040517f08c379a00000000000000000000000000000000000000000000000000000000081526004018080602001828103825260218152602001806129886021913960400191505060405180910390fd5b8073ffffffffffffffffffffffffffffffffffffffff16610b316114f7565b73ffffffffffffffffffffffffffffffffffffffff161480610b605750610b5f81610b5a6114f7565b611446565b5b610bb5576040517f08c379a00000000000000000000000000000000000000000000000000000000081526004018080602001828103825260388152602001806128576038913960400191505060405180910390fd5b610bbf83836114ff565b505050565b6000610bd060026115b8565b905090565b610be6610be06114f7565b826115cd565b610c3b576040517f08c379a00000000000000000000000000000000000000000000000000000000081526004018080602001828103825260318152602001806129a96031913960400191505060405180910390fd5b610c468383836116c1565b505050565b6000610c9e82600160008673ffffffffffffffffffffffffffffffffffffffff1673ffffffffffffffffffffffffffffffffffffffff16815260200190815260200160002061190490919063ffffffff16565b905092915050565b610cb0828261191f565b5050565b610ccf838383604051806020016040528060008152506110fd565b505050565b600080610ceb836002611b1390919063ffffffff16565b50905080915050919050565b6000610d27826040518060600160405280602981526020016128b9602991396002611b419092919063ffffffff16565b9050919050565b606060098054600181600116156101000203166002900480601f016020809104026020016040519081016040528092919081815260200182805460018160011615610100020316600290048015610dc65780601f10610d9b57610100808354040283529160200191610dc6565b820191906000526020600020905b815481529060010190602001808311610da957829003601f168201915b5050505050905090565b60008073ffffffffffffffffffffffffffffffffffffffff168273ffffffffffffffffffffffffffffffffffffffff161415610e57576040517f08c379a000000000000000000000000000000000000000000000000000000000815260040180806020018281038252602a81526020018061288f602a913960400191505060405180910390fd5b610e9e600160008473ffffffffffffffffffffffffffffffffffffffff1673ffffffffffffffffffffffffffffffffffffffff168152602001908152602001600020611b61565b9050919050565b606060078054600181600116156101000203166002900480601f016020809104026020016040519081016040528092919081815260200182805460018160011615610100020316600290048015610f3d5780601f10610f1257610100808354040283529160200191610f3d565b820191906000526020600020905b815481529060010190602001808311610f2057829003601f168201915b5050505050905090565b610f4f6114f7565b73ffffffffffffffffffffffffffffffffffffffff168273ffffffffffffffffffffffffffffffffffffffff161415610ff0576040517f08c379a00000000000000000000000000000000000000000000000000000000081526004018080602001828103825260198152602001807f4552433732313a20617070726f766520746f2063616c6c65720000000000000081525060200191505060405180910390fd5b8060056000610ffd6114f7565b73ffffffffffffffffffffffffffffffffffffffff1673ffffffffffffffffffffffffffffffffffffffff16815260200190815260200160002060008473ffffffffffffffffffffffffffffffffffffffff1673ffffffffffffffffffffffffffffffffffffffff16815260200190815260200160002060006101000a81548160ff0219169083151502179055508173ffffffffffffffffffffffffffffffffffffffff166110aa6114f7565b73ffffffffffffffffffffffffffffffffffffffff167f17307eab39ab6107e8899845ad3d59bd9653f200f220920489ca2b5937696c318360405180821515815260200191505060405180910390a35050565b61110e6111086114f7565b836115cd565b611163576040517f08c379a00000000000000000000000000000000000000000000000000000000081526004018080602001828103825260318152602001806129a96031913960400191505060405180910390fd5b61116f84848484611b76565b50505050565b6060611180826114da565b6111d5576040517f08c379a000000000000000000000000000000000000000000000000000000000815260040180806020018281038252602f815260200180612959602f913960400191505060405180910390fd5b6060600860008481526020019081526020016000208054600181600116156101000203166002900480601f01602080910402602001604051908101604052809291908181526020018280546001816001161561010002031660029004801561127e5780601f106112535761010080835404028352916020019161127e565b820191906000526020600020905b81548152906001019060200180831161126157829003601f168201915b50505050509050606061128f610d2e565b90506000815114156112a5578192505050611441565b6000825111156113765780826040516020018083805190602001908083835b602083106112e757805182526020820191506020810190506020830392506112c4565b6001836020036101000a03801982511681845116808217855250505050505090500182805190602001908083835b602083106113385780518252602082019150602081019050602083039250611315565b6001836020036101000a0380198251168184511680821785525050505050509050019250505060405160208183030381529060405292505050611441565b8061138085611be8565b6040516020018083805190602001908083835b602083106113b65780518252602082019150602081019050602083039250611393565b6001836020036101000a03801982511681845116808217855250505050505090500182805190602001908083835b6020831061140757805182526020820191506020810190506020830392506113e4565b6001836020036101000a03801982511681845116808217855250505050505090500192505050604051602081830303815290604052925050505b919050565b6000600560008473ffffffffffffffffffffffffffffffffffffffff1673ffffffffffffffffffffffffffffffffffffffff16815260200190815260200160002060008373ffffffffffffffffffffffffffffffffffffffff1673ffffffffffffffffffffffffffffffffffffffff16815260200190815260200160002060009054906101000a900460ff16905092915050565b60006114f0826002611d4e90919063ffffffff16565b9050919050565b600033905090565b816004600083815260200190815260200160002060006101000a81548173ffffffffffffffffffffffffffffffffffffffff021916908373ffffffffffffffffffffffffffffffffffffffff160217905550808273ffffffffffffffffffffffffffffffffffffffff1661157283610cf7565b73ffffffffffffffffffffffffffffffffffffffff167f8c5be1e5ebec7d5bd14f71427d1e84f3dd0314c0f7b2291e5b200ac8c7c3b92560405160405180910390a45050565b60006115c682600001611d68565b9050919050565b60006115d8826114da565b61162d576040517f08c379a000000000000000000000000000000000000000000000000000000000815260040180806020018281038252602c81526020018061282b602c913960400191505060405180910390fd5b600061163883610cf7565b90508073ffffffffffffffffffffffffffffffffffffffff168473ffffffffffffffffffffffffffffffffffffffff1614806116a757508373ffffffffffffffffffffffffffffffffffffffff1661168f846109e5565b73ffffffffffffffffffffffffffffffffffffffff16145b806116b857506116b78185611446565b5b91505092915050565b8273ffffffffffffffffffffffffffffffffffffffff166116e182610cf7565b73ffffffffffffffffffffffffffffffffffffffff161461174d576040517f08c379a00000000000000000000000000000000000000000000000000000000081526004018080602001828103825260298152602001806129306029913960400191505060405180910390fd5b600073ffffffffffffffffffffffffffffffffffffffff168273ffffffffffffffffffffffffffffffffffffffff1614156117d3576040517f08c379a00000000000000000000000000000000000000000000000000000000081526004018080602001828103825260248152602001806127e16024913960400191505060405180910390fd5b6117de838383611d79565b6117e96000826114ff565b61183a81600160008673ffffffffffffffffffffffffffffffffffffffff1673ffffffffffffffffffffffffffffffffffffffff168152602001908152602001600020611d7e90919063ffffffff16565b5061188c81600160008573ffffffffffffffffffffffffffffffffffffffff1673ffffffffffffffffffffffffffffffffffffffff168152602001908152602001600020611d9890919063ffffffff16565b506118a381836002611db29092919063ffffffff16565b50808273ffffffffffffffffffffffffffffffffffffffff168473ffffffffffffffffffffffffffffffffffffffff167fddf252ad1be2c89b69c2b068fc378daa952ba7f163c4a11628f55a4df523b3ef60405160405180910390a4505050565b60006119138360000183611de7565b60019004905092915050565b600073ffffffffffffffffffffffffffffffffffffffff168273ffffffffffffffffffffffffffffffffffffffff1614156119c2576040517f08c379a00000000000000000000000000000000000000000000000000000000081526004018080602001828103825260208152602001807f4552433732313a206d696e7420746f20746865207a65726f206164647265737381525060200191505060405180910390fd5b6119cb816114da565b15611a3e576040517f08c379a000000000000000000000000000000000000000000000000000000000815260040180806020018281038252601c8152602001807f4552433732313a20746f6b656e20616c7265616479206d696e7465640000000081525060200191505060405180910390fd5b611a4a60008383611d79565b611a9b81600160008573ffffffffffffffffffffffffffffffffffffffff1673ffffffffffffffffffffffffffffffffffffffff168152602001908152602001600020611d9890919063ffffffff16565b50611ab281836002611db29092919063ffffffff16565b50808273ffffffffffffffffffffffffffffffffffffffff16600073ffffffffffffffffffffffffffffffffffffffff167fddf252ad1be2c89b69c2b068fc378daa952ba7f163c4a11628f55a4df523b3ef60405160405180910390a45050565b600080600080611b268660000186611e6a565b91509150816001900481600190049350935050509250929050565b6000611b54846000018460010284611f03565b6001900490509392505050565b6000611b6f82600001611ff9565b9050919050565b611b818484846116c1565b611b8d8484848461200a565b611be2576040517f08c379a00000000000000000000000000000000000000000000000000000000081526004018080602001828103825260328152602001806127af6032913960400191505060405180910390fd5b50505050565b60606000821415611c30576040518060400160405280600181526020017f30000000000000000000000000000000000000000000000000000000000000008152509050611d49565b600082905060005b60008214611c5a578080600101915050600a8281611c5257fe5b049150611c38565b60608167ffffffffffffffff81118015611c7357600080fd5b506040519080825280601f01601f191660200182016040528015611ca65781602001600182028036833780820191505090505b50905060006001830390508593505b60008414611d4157600a8481611cc757fe5b066030017f01000000000000000000000000000000000000000000000000000000000000000282828060019003935081518110611d0057fe5b60200101907effffffffffffffffffffffffffffffffffffffffffffffffffffffffffffff1916908160001a905350600a8481611d3957fe5b049350611cb5565b819450505050505b919050565b6000611d60836000018360010261225b565b905092915050565b600081600001805490509050919050565b505050565b6000611d90836000018360010261227e565b905092915050565b6000611daa8360000183600102612366565b905092915050565b6000611dde84600001846001028473ffffffffffffffffffffffffffffffffffffffff166001026123d6565b90509392505050565b600081836000018054905011611e48576040517f08c379a000000000000000000000000000000000000000000000000000000000815260040180806020018281038252602281526020018061278d6022913960400191505060405180910390fd5b826000018281548110611e5757fe5b9060005260206000200154905092915050565b60008082846000018054905011611ecc576040517f08c379a00000000000000000000000000000000000000000000000000000000081526004018080602001828103825260228152602001806128e26022913960400191505060405180910390fd5b6000846000018481548110611edd57fe5b906000526020600020906002020190508060000154816001015492509250509250929050565b60008084600101600085815260200190815260200160002054905060008114158390611fca576040517f08c379a00000000000000000000000000000000000000000000000000000000081526004018080602001828103825283818151815260200191508051906020019080838360005b83811015611f8f578082015181840152602081019050611f74565b50505050905090810190601f168015611fbc5780820380516001836020036101000a031916815260200191505b509250505060405180910390fd5b50846000016001820381548110611fdd57fe5b9060005260206000209060020201600101549150509392505050565b600081600001805490509050919050565b600061202b8473ffffffffffffffffffffffffffffffffffffffff166124b2565b6120385760019050612253565b60606121be63150b7a027c0100000000000000000000000000000000000000000000000000000000026120696114f7565b888787604051602401808573ffffffffffffffffffffffffffffffffffffffff1681526020018473ffffffffffffffffffffffffffffffffffffffff16815260200183815260200180602001828103825283818151815260200191508051906020019080838360005b838110156120ed5780820151818401526020810190506120d2565b50505050905090810190601f16801561211a5780820380516001836020036101000a031916815260200191505b5095505050505050604051602081830303815290604052907bffffffffffffffffffffffffffffffffffffffffffffffffffffffff19166020820180517bffffffffffffffffffffffffffffffffffffffffffffffffffffffff83818316178352505050506040518060600160405280603281526020016127af603291398773ffffffffffffffffffffffffffffffffffffffff166124c59092919063ffffffff16565b905060008180602001905160208110156121d757600080fd5b8101908080519060200190929190505050905063150b7a027c0100000000000000000000000000000000000000000000000000000000027bffffffffffffffffffffffffffffffffffffffffffffffffffffffff1916817bffffffffffffffffffffffffffffffffffffffffffffffffffffffff191614925050505b949350505050565b600080836001016000848152602001908152602001600020541415905092915050565b6000808360010160008481526020019081526020016000205490506000811461235a57600060018203905060006001866000018054905003905060008660000182815481106122c957fe5b90600052602060002001549050808760000184815481106122e657fe5b906000526020600020018190555060018301876001016000838152602001908152602001600020819055508660000180548061231e57fe5b60019003818190600052602060002001600090559055866001016000878152602001908152602001600020600090556001945050505050612360565b60009150505b92915050565b600061237283836124dd565b6123cb5782600001829080600181540180825580915050600190039060005260206000200160009091909190915055826000018054905083600101600084815260200190815260200160002081905550600190506123d0565b600090505b92915050565b600080846001016000858152602001908152602001600020549050600081141561247d578460000160405180604001604052808681526020018581525090806001815401808255809150506001900390600052602060002090600202016000909190919091506000820151816000015560208201518160010155505084600001805490508560010160008681526020019081526020016000208190555060019150506124ab565b8285600001600183038154811061249057fe5b90600052602060002090600202016001018190555060009150505b9392505050565b600080823b905060008111915050919050565b60606124d48484600085612500565b90509392505050565b600080836001016000848152602001908152602001600020541415905092915050565b6060823073ffffffffffffffffffffffffffffffffffffffff16311015612572576040517f08c379a00000000000000000000000000000000000000000000000000000000081526004018080602001828103825260268152602001806128056026913960400191505060405180910390fd5b61257b856124b2565b6125ed576040517f08c379a000000000000000000000000000000000000000000000000000000000815260040180806020018281038252601d8152602001807f416464726573733a2063616c6c20746f206e6f6e2d636f6e747261637400000081525060200191505060405180910390fd5b600060608673ffffffffffffffffffffffffffffffffffffffff1685876040518082805190602001908083835b6020831061263d578051825260208201915060208101905060208303925061261a565b6001836020036101000a03801982511681845116808217855250505050505090500191505060006040518083038185875af1925050503d806000811461269f576040519150601f19603f3d011682016040523d82523d6000602084013e6126a4565b606091505b50915091506126b48282866126c0565b92505050949350505050565b606083156126d057829050612785565b6000835111156126e35782518084602001fd5b816040517f08c379a00000000000000000000000000000000000000000000000000000000081526004018080602001828103825283818151815260200191508051906020019080838360005b8381101561274a57808201518184015260208101905061272f565b50505050905090810190601f1680156127775780820380516001836020036101000a031916815260200191505b509250505060405180910390fd5b939250505056fe456e756d657261626c655365743a20696e646578206f7574206f6620626f756e64734552433732313a207472616e7366657220746f206e6f6e20455243373231526563656976657220696d706c656d656e7465724552433732313a207472616e7366657220746f20746865207a65726f2061646472657373416464726573733a20696e73756666696369656e742062616c616e636520666f722063616c6c4552433732313a206f70657261746f7220717565727920666f72206e6f6e6578697374656e7420746f6b656e4552433732313a20617070726f76652063616c6c6572206973206e6f74206f776e6572206e6f7220617070726f76656420666f7220616c6c4552433732313a2062616c616e636520717565727920666f7220746865207a65726f20616464726573734552433732313a206f776e657220717565727920666f72206e6f6e6578697374656e7420746f6b656e456e756d657261626c654d61703a20696e646578206f7574206f6620626f756e64734552433732313a20617070726f76656420717565727920666f72206e6f6e6578697374656e7420746f6b656e4552433732313a207472616e73666572206f6620746f6b656e2074686174206973206e6f74206f776e4552433732314d657461646174613a2055524920717565727920666f72206e6f6e6578697374656e7420746f6b656e4552433732313a20617070726f76616c20746f2063757272656e74206f776e65724552433732313a207472616e736665722063616c6c6572206973206e6f74206f776e6572206e6f7220617070726f766564a26469706673582212205eca98b88812f601c6d5151a34917dfa29e5830022e074278593078ac61b105a64736f6c63430007020033",
  "immutableReferences": {},
  "source": "// SPDX-License-Identifier: MIT\r\n\r\npragma solidity 0.7.2;\r\n\r\nimport \"@openzeppelin/contracts/token/ERC721/ERC721.sol\";\r\n\r\ncontract NFT is ERC721 {\r\n    constructor(string memory _name, string memory _symbol)\r\n        ERC721(_name, _symbol)\r\n    {}\r\n\r\n    function mint(address _to, uint256 _tokenId) external {\r\n        _mint(_to, _tokenId);\r\n    }\r\n}\r\n",
  "sourcePath": "C:/Users/85/Desktop/rft/contracts/NFT.sol",
  "compiler": {
    "name": "solc",
    "version": "0.7.2+commit.51b20bc0.Emscripten.clang"
  },
  "schemaVersion": "3.3.3",
  "updatedAt": "2021-05-11T17:34:50.449Z",
  "networkType": "ethereum",
  "devdoc": {
    "kind": "dev",
    "methods": {
      "approve(address,uint256)": {
        "details": "See {IERC721-approve}."
      },
      "balanceOf(address)": {
        "details": "See {IERC721-balanceOf}."
      },
      "baseURI()": {
        "details": "Returns the base URI set via {_setBaseURI}. This will be automatically added as a prefix in {tokenURI} to each token's URI, or to the token ID if no specific URI is set for that token ID."
      },
      "getApproved(uint256)": {
        "details": "See {IERC721-getApproved}."
      },
      "isApprovedForAll(address,address)": {
        "details": "See {IERC721-isApprovedForAll}."
      },
      "name()": {
        "details": "See {IERC721Metadata-name}."
      },
      "ownerOf(uint256)": {
        "details": "See {IERC721-ownerOf}."
      },
      "safeTransferFrom(address,address,uint256)": {
        "details": "See {IERC721-safeTransferFrom}."
      },
      "safeTransferFrom(address,address,uint256,bytes)": {
        "details": "See {IERC721-safeTransferFrom}."
      },
      "setApprovalForAll(address,bool)": {
        "details": "See {IERC721-setApprovalForAll}."
      },
      "supportsInterface(bytes4)": {
        "details": "See {IERC165-supportsInterface}. Time complexity O(1), guaranteed to always use less than 30 000 gas."
      },
      "symbol()": {
        "details": "See {IERC721Metadata-symbol}."
      },
      "tokenByIndex(uint256)": {
        "details": "See {IERC721Enumerable-tokenByIndex}."
      },
      "tokenOfOwnerByIndex(address,uint256)": {
        "details": "See {IERC721Enumerable-tokenOfOwnerByIndex}."
      },
      "tokenURI(uint256)": {
        "details": "See {IERC721Metadata-tokenURI}."
      },
      "totalSupply()": {
        "details": "See {IERC721Enumerable-totalSupply}."
      },
      "transferFrom(address,address,uint256)": {
        "details": "See {IERC721-transferFrom}."
      }
    },
    "version": 1
  },
  "userdoc": {
    "kind": "user",
    "methods": {},
    "version": 1
  }
}